:020000040000fa
:080000000002040000000000f2
:020000040000fa
:0400080002030000ef
:020000040000fa
:04000c0044030000a9
:020000040000fa
:04001000a403000045
:020000040000fa
:0400140022030000c3
:020000040000fa
:04001800640300007d
:020000040000fa
:04001c008403000059
:020000040000fa
:04002000c403000015
:020000040000fa
:040024008004000054
:020000040000fa
:040028008004000050
:020000040000fa
:04002c00800400004c
:020000040000fa
:040030008004000048
:020000040000fa
:040034008004000044
:020000040000fa
:040038008004000040
:020000040000fa
:04003c00800400003c
:020000040000fa
:040040008004000038
:020000040000fa
:040044008004000034
:020000040000fa
:040048008004000030
:020000040000fa
:04004c00800400002c
:020000040000fa
:040050008004000028
:020000040000fa
:040054008004000024
:020000040000fa
:040058008004000020
:020000040000fa
:04005c00800400001c
:020000040000fa
:040060008004000018
:020000040000fa
:040064008004000014
:020000040000fa
:040068008004000010
:020000040000fa
:04006c00800400000c
:020000040000fa
:040070008004000008
:020000040000fa
:040074008004000004
:020000040000fa
:040078008004000000
:020000040000fa
:04007c0080040000fc
:020000040000fa
:0400800080040000f8
:020000040000fa
:0400840080040000f4
:020000040000fa
:0400880080040000f0
:020000040000fa
:04008c0080040000ec
:020000040000fa
:0400900080040000e8
:020000040000fa
:0400940080040000e4
:020000040000fa
:0400980080040000e0
:020000040000fa
:04009c0080040000dc
:020000040000fa
:0400a00080040000d8
:020000040000fa
:0400a40080040000d4
:020000040000fa
:0400a80080040000d0
:020000040000fa
:0400ac0080040000cc
:020000040000fa
:0400b00080040000c8
:020000040000fa
:0400b4004e040000f6
:020000040000fa
:0400b80080040000c0
:020000040000fa
:0400bc0080040000bc
:020000040000fa
:0400c00080040000b8
:020000040000fa
:0400c40080040000b4
:020000040000fa
:0400c80080040000b0
:020000040000fa
:0400cc0080040000ac
:020000040000fa
:0400d00080040000a8
:020000040000fa
:0400d40080040000a4
:020000040000fa
:0400d80080040000a0
:020000040000fa
:0400dc00800400009c
:020000040000fa
:0400e0008004000098
:020000040000fa
:0400e4008004000094
:020000040000fa
:0400e8008004000090
:020000040000fa
:0400ec00800400008c
:020000040000fa
:0400f0008004000088
:020000040000fa
:0400f4008004000084
:020000040000fa
:0400f8008004000080
:020000040000fa
:0400fc00800400007c
:020000040000fa
:040100008004000077
:020000040000fa
:040104008004000073
:020000040000fa
:040108001c040000d3
:020000040000fa
:04010c00800400006b
:020000040000fa
:040110008004000067
:020000040000fa
:040114008004000063
:020000040000fa
:04011800800400005f
:020000040000fa
:04011c00800400005b
:020000040000fa
:040120008004000057
:020000040000fa
:040124008004000053
:020000040000fa
:04012800800400004f
:020000040000fa
:04012c00800400004b
:020000040000fa
:040130008004000047
:020000040000fa
:040134008004000043
:020000040000fa
:04013800800400003f
:020000040000fa
:04013c00800400003b
:020000040000fa
:040140008004000037
:020000040000fa
:040144008004000033
:020000040000fa
:04014800800400002f
:020000040000fa
:04014c00800400002b
:020000040000fa
:040150008004000027
:020000040000fa
:040154008004000023
:020000040000fa
:04015800800400001f
:020000040000fa
:04015c00800400001b
:020000040000fa
:040160008004000017
:020000040000fa
:040164008004000013
:020000040000fa
:04016800800400000f
:020000040000fa
:04016c00800400000b
:020000040000fa
:040170008004000007
:020000040000fa
:040174008004000003
:020000040000fa
:0401780080040000ff
:020000040000fa
:04017c0080040000fb
:020000040000fa
:04018000f003000088
:020000040000fa
:0401840080040000f3
:020000040000fa
:0401880080040000ef
:020000040000fa
:04018c0080040000eb
:020000040000fa
:0401900080040000e7
:020000040000fa
:0401940080040000e3
:020000040000fa
:0401980080040000df
:020000040000fa
:04019c0080040000db
:020000040000fa
:0401a00080040000d7
:020000040000fa
:0401a40080040000d3
:020000040000fa
:0401a80080040000cf
:020000040000fa
:0401ac0080040000cb
:020000040000fa
:0401b00080040000c7
:020000040000fa
:0401b40080040000c3
:020000040000fa
:0401b80080040000bf
:020000040000fa
:0401bc0080040000bb
:020000040000fa
:0401c00080040000b7
:020000040000fa
:0401c40080040000b3
:020000040000fa
:0401c80080040000af
:020000040000fa
:0401cc0080040000ab
:020000040000fa
:0401d00080040000a7
:020000040000fa
:0401d40080040000a3
:020000040000fa
:0401d800800400009f
:020000040000fa
:0401dc00800400009b
:020000040000fa
:0401e0008004000097
:020000040000fa
:0401e4008004000093
:020000040000fa
:0401e800800400008f
:020000040000fa
:0401ec00800400008b
:020000040000fa
:0401f0008004000087
:020000040000fa
:0401f4008004000083
:020000040000fa
:0401f800800400007f
:020000040000fa
:0401fc00800400007b
:020000040000fa
:040200008004000076
:020000040000fa
:040204008004000072
:020000040000fa
:04020800800400006e
:020000040000fa
:04020c00800400006a
:020000040000fa
:040210008004000066
:020000040000fa
:040214008004000062
:020000040000fa
:04021800800400005e
:020000040000fa
:04021c00800400005a
:020000040000fa
:040220008004000056
:020000040000fa
:040224008004000052
:020000040000fa
:04022800800400004e
:020000040000fa
:04022c00800400004a
:020000040000fa
:040230008004000046
:020000040000fa
:040234008004000042
:020000040000fa
:04023800800400003e
:020000040000fa
:04023c00800400003a
:020000040000fa
:040240008004000036
:020000040000fa
:040244008004000032
:020000040000fa
:04024800800400002e
:020000040000fa
:04024c00800400002a
:020000040000fa
:040250008004000026
:020000040000fa
:040254008004000022
:020000040000fa
:04025800800400001e
:020000040000fa
:04025c00800400001a
:020000040000fa
:040260008004000016
:020000040000fa
:040264008004000012
:020000040000fa
:100400000f2621000eff27000e01880000000000cb
:10041000000020000000e000020032000001200087
:100420002002880014000700370107000000e000e8
:1004300003003a006036240001002000020037006b
:100440000000200001002000810f70000100320038
:100450000f000700000020000000e0000200320052
:1004600000000200000000007644020000000000ce
:100470000040da000000fe00200920000000e0003b
:1004800002003200002020009001880000000600d9
:10049000a1028800800478000000eb001f003700f4
:1004a000e284440054a0b4009905ba00e2844400f8
:1004b00054a0b4009906ba00e284440054a0b400e9
:1004c0000006eb00476fde00fd07b200ae018800ba
:1004d000636ce10003003a000ad801000000eb0061
:1004e0000e003700606ce10008003a00004deb00a0
:1004f0000a05e800020039003420ec000af0a000f0
:100500008b05e900f9ff3e00040037006168e10057
:10051000010032000086eb000b00070019c7ba008b
:100520000e04e0001905ba0003003a000a00e000da
:10053000dbff3a0000000600fe07b200ae028800b2
:100540008a047800f5ff37000cd0a300e20f4d00bd
:100550001c00390089027800354dba000a05e80010
:10056000020039003420ec000af0a0008b05e900fd
:100570000f003200254dba000a05e80002003900dc
:100580003420ec000af0a0008b05e90008003200de
:100590000c00e0000600320015cdba000a05e800a4
:1005a000020039003420ec000af0a0008b05e900bd
:1005b0008984e80054a0b4000b00e000e2ff3a0098
:1005c000000006009902ba00055d78008b05e9007d
:1005d000f7ff3200c82ade00055d78008b05e900d0
:1005e000f3ff32000c00e000f1ff320019ddba0029
:1005f000eeff3700e228040000000000f43704009a
:10060000000000003600f800809fbe00829fbe0000
:10061000849fbe00869fbe000000fa00c028a9008b
:100620000000eb009d2007000080fa004f03be0091
:100630004f02be004f01be004f00be003600f90061
:10064000004006003600f800809fbe00829fbe007a
:10065000849fbe00869fbe000000fa009420070021
:10066000c048a900100020008c2007000080fa007c
:100670004f03be004f02be004f01be004f00be0040
:100680003600f900004006003600f800809fbe00ea
:10069000829fbe00849fbe00869fbe000000fa00bd
:1006a000c068a900200020007c2007000080fa001c
:1006b0004f03be004f02be004f01be004f00be0000
:1006c0003600f900004006003600f800809fbe00aa
:1006d000829fbe00849fbe00869fbe000000fa007d
:1006e000c088a900300020006c2007000080fa00bc
:1006f0004f03be004f02be004f01be004f00be00c0
:100700003600f900004006003600f800809fbe0069
:10071000829fbe00849fbe00869fbe000000fa003c
:10072000c0a8a900400020005c2007000080fa005b
:100730004f03be004f02be004f01be004f00be007f
:100740003600f900004006003600f800809fbe0029
:10075000829fbe00849fbe00869fbe000000fa00fc
:10076000c608a900700020004c2007000080fa0095
:100770004f03be004f02be004f01be004f00be003f
:100780003600f900004006003600f800809fbe00e9
:10079000829fbe00849fbe00869fbe000000fa00bc
:1007a0002146800000022000008060000000e00080
:1007b00003003200c4a8a9009000200037200700e1
:1007c00020468000700060000000e000030032005e
:1007d000c488a900a000200030200700ffff3700d8
:1007e0003600f800809fbe00829fbe00849fbe003e
:1007f000869fbe003200f8003400f8001000200090
:10080000a00188000020200000d0fe000000fa00b7
:100810000c0107000080fa003400f9003200f900f2
:100820004f03be004f02be004f01be004f00be008e
:100830003600f900004006003600f800809fbe0038
:10084000829fbe00849fbe00869fbe000000fa000b
:100850005128800000042000008060000000e000bb
:1008600006003200808180000000e00002003200bb
:1008700080818000000001000ac5a9000708a900c6
:100880000080fa004f03be004f02be004f01be00c1
:100890004f00be003600f900004006003600f800a8
:1008a000809fbe00829fbe00849fbe00869fbe00c8
:1008b0000000fa0051208000000420000080600049
:1008c0000000e00006003200a08180000000e0008f
:1008d00002003200a0818000000001000ac4a900cb
:1008e0000468a9000080fa004f03be004f02be005a
:1008f0004f01be004f00be003600f9000040060068
:100900000040da000000fe000000050080017800d1
:1009100002003700b15978000201e9000200e0004e
:10092000fcff3a000000060080017800020037005a
:10093000815978000201e9000200e000fcff3a0062
:0409400000000600ad
:020000040000fa
:100944001201000000020000020000000008000084
:10095400d80400000a0000000001000001020000a9
:100964000001000009020000430000000201000031
:1009740000c0000032090000040000000001000073
:100984000202000001000000052400000010000025
:1009940001040000240200000205000024060000f7
:1009a4000001000005240000010000000107000010
:1009b40005810000030a0000000200000904000091
:1009c40001000000020a000000000000000700000f
:1009d40005020000024000000000000007050000be
:1009e4008202000040000000000000000403000038
:1009f40009040000180300006b00000061000000ff
:100a04006e0000006100000064000000650000004a
:100a14005f000000310000003200000031000000df
:100a240034000000180300004300000041000000ef
:100a34004e000000740000006f000000550000002c
:100a440053000000420000005f0000005600000058
:100a540033000000b4840000f8840000fc8400002b
:040a640014850000f5
:020000040000fa
:100a68000200fa002ac8a9000080eb0020268800ae
:100a78000080eb0000268800e024ef004200200000
:100a88008000eb00204e2000a5ff0700dc24ef00cb
:100a9800de24ef008e44a900f009200030268800eb
:100aa800f0092000102688008ac4a8009004a80035
:100ab800002021004800de00702688000040eb007e
:100ac800004f7800070037001e80fb00c300dd00e0
:100ad80000202100008140006000b8000089be00ad
:100ae8001e4fe8001e407800eb4f5000f6ff36001e
:100af800ca24a800cc24ef00caa4a900ca24a900cb
:100b08008000200000268800801621008040eb002d
:100b180001487800e01621008040eb000148780089
:100b2800f016210090407800e0c06000014878008d
:100b38000017210090407800e0c06000014878006c
:100b480000268000680060000000e000ecff3a002a
:100b580010c0b30013f0b70010c0b30014f0b70012
:100b68001570ef001670ef000d70ef000040eb00fd
:100b7800004f7800170037001e80fb0080004000ff
:100b880000162100008040008000eb00010878007a
:100b98001e80fb0080004000a0152100008040005e
:100ba8008000eb00010878001e80fb00311721004f
:100bb800008040008040eb00014878001e80fb0068
:100bc80061172100008040008040eb000148780058
:100bd8001e4fe8001e407800e24f5000e6ff360046
:100be80000212100008b8800d00020000027880009
:100bf80090172100209088001190800000c02f00dd
:100c0800008060000030a0001090880040002000a4
:100c180000908800009080000070a000009088007c
:100c28000270ef001830ef001a30ef001c70ef0070
:100c38000030ef000080fa00000006000200fa0011
:100c480000808000e10f50000b003a005126800020
:100c580000042000008060000000e00006003a0068
:100c6800f0fe2f0000268800c204a800c284a80055
:100c78002000200000808800402480007000600070
:100c88000000e0000700320050248000700060007f
:100c98000000e0000300320000012000402488002a
:100ca8004f07070080248000620060000000e00019
:100cb800020032000ac8a900a100370000268000ff
:100cc800610060000000e0000a0032001026800089
:100cd800610060000000e0000600320060ff0700cd
:100ce8002ac8a800400020000080880010002000ca
:100cf8000026880000268000700060000000e000e8
:100d08000500320010268000700060000000e0003e
:100d1800010032002507070041248000000420005c
:100d2800008060000000e0000300320000042000a2
:100d3800402488007e0a07000026800064006000c6
:100d48000000e000140032001026800064006000fb
:100d58000000e00004003200120020008000eb00d8
:100d680030072000841e070040002000002688006d
:100d780011d0bf000004e0000300320011d0bf0012
:100d88000040e90011f0b70011d0bf000004e000f6
:100d980001003a00bb02070001268000000820007d
:100da800008060000000e00006003200112680008c
:100db80000082000008060000000e0000100320010
:100dc800c106070000268000620060000000e00005
:100dd8000c00320010268000620060000000e00075
:100de80008003200120020008000eb00f0ff27000e
:100df800611e07000080eb002026880020002000ec
:100e08000026880000808000e30f500002003e00aa
:100e18000ac8a9004a003700102680006800600050
:100e28000000e000450032000040eb00004f780071
:100e38003d00370000268000680060000000e000e8
:100e48003d00320040268000004078000ef0b700d8
:100e58000ed0bf000080fb004400de000040780098
:100e68000ff0b70080002000002688000ed0bf00d9
:100e7800684060000004e00011003a000fd0bf0095
:100e88000081fb008080fb0060172100008040008b
:100e98009040780061c060000004a200e14060005a
:100ea8006017210000004100e1c060001041780097
:100eb8000204a10081407100014878001000370049
:100ec8000fd0bf000081fb008080fb00301721009d
:100ed800008040009040780061c060000004a200db
:100ee800e14060003017210000004100e1c06000cf
:100ef800104178000204a100814071000148780087
:100f08000fd0bf000004e00002003a00c00607004e
:100f1800040037000001eb00e10021002007200059
:100f2800151e07001e4fe8001e407800e34f5000d2
:100f3800c0ff360001003700000000000ac8a90001
:100f48000080fa00000006000400fa00204798001c
:100f5800314798003e4090000080fb006800600028
:100f68000000e000030032008040eb002e409000bb
:100f7800460307003e4090000080fb0064006000cc
:100f88000000e0000300320011c0b3002e409000c2
:100f98003e030700014e20002e4090000080fb0019
:100fa80000004000008f40001e007800be40900006
:100fb800014878000080fa00000006000800fa00e6
:100fc8002047980031479800220798006347980007
:100fd8003e4090000004e000070032002e409000e0
:100fe8000080fb00800040000016210000804000c7
:100ff800100f7800060037002e4090000080fb009c
:1010080080004000a015210000804000100f7800eb
:101018001e0078000000e00002003a000000eb002b
:101028007c003700ae0090001e007800f20f200010
:1010380002816000c0419000e0c1610002c17100fe
:1010480042409800c808de005041900060416100ad
:1010580081407100514098006e4090008080fb00f4
:10106800f03f2000808060001e007800f20f200012
:1010780002816000a0419000e0c1610002c17100de
:1010880022409800c808de00e3806000e3c06000ea
:10109800b0419000c2cfb30002c16100814071002d
:1010a800314098001e0078009080fb0010409000ae
:1010b8000080fb004800dd000080700080007800a0
:1010c80000042000808060001e007800f20f2000dd
:1010d8000281600090417800e0c1610002c17100a6
:1010e80002487800c808de001041900060416100a5
:1010f80081407100114098001e0078009080fb002c
:10110800104090000080fb004800dd000080700067
:10111800800078000130a0001e007800f20f200047
:101128000281600090417800e0c1610002c1710055
:1011380002487800c808de00104190006041610054
:1011480081407100114098001e0078009080fb00db
:10115800104090000080fb004800dd000080700017
:10116800800078000170a0001e007800f20f2000b7
:101178000281600090417800e0c1610002c1710005
:1011880002487800c808de00104190006041610004
:1011980081407100114098003e4090000004e0003a
:1011a8000e0032002e4090000080fb00ae40900000
:1011b8008180fb000181400001162100810041006f
:1011c800910078000130a2000001400000162100c3
:1011d80000004100010878000d0037002e40900003
:1011e8000080fb00ae4090008180fb000181400040
:1011f800a115210081004100910078000130a20072
:1012080000014000a01521000000410001087800fd
:101218001e0078000080fa00000006000400fa00b2
:1012280020479800314798002e4090000004e000c5
:101238004d003a0030808000a0409000e0c060007f
:101248000134a0002140980030419000c1cfb30084
:101258008140610031409800308080009117210062
:10126800f20f200002816000c0419000e0c16100df
:1012780002c1710042409800c808de005041900049
:1012880060416100814071005140980030808000c9
:1012980090407800e0c06000c140b3000148780089
:1012a80090409000e0c060001140980030808000bd
:1012b800318080001181fb00914090008180fb000b
:1012c800c808dd00810071000170a000f20f200045
:1012d8000281600090417800e0c1610002c17100a4
:1012e80002487800c808de001041900060416100a3
:1012f8008140710011409800008b80009040780078
:10130800e0c060000124a0000148780090409000ef
:10131800e0c0600011409800008b8000018b8000c5
:101328001181fb00914090008180fb00c808dd001e
:10133800810071000170a000f20f2000028160009e
:1013480090417800e0c1610002c171000248780054
:10135800c808de00104190006041610081407100c2
:1013680011409800660037002e4090000080fb0076
:1013780000004000800078003e4090000080fb00a4
:10138800008040004400dd0080007800002021003b
:10139800008f40001e0078009080fb0010409000f5
:1013a8000080fb004800dd000080700080007800ad
:1013b8000120a0001e007800f20f200002816000ca
:1013c80090417800e0c1610002c1710002487800d4
:1013d800c808de0010419000604161008140710042
:1013e800114098001e0078009080fb00104090008b
:1013f8000080fb004800dd0000807000800078005d
:101408000170a0001e007800f20f20000281600029
:1014180090417800e0c1610002c171000248780083
:10142800c808de00104190006041610081407100f1
:10143800114098002e4090000080fb000000400002
:10144800800078003e4090000080fb000080400053
:101458004400dd00e800400000202100008f40002b
:101468001e0078009080fb00104090000080fb0078
:101478004800dd0000807000800078000120a00096
:101488001e007800f20f2000028160009041780071
:10149800e0c1610002c1710002487800c808de009e
:1014a8001041900060416100814071001140980036
:1014b8001e0078009080fb00104090000080fb0028
:1014c8004800dd0000807000800078000170a000f6
:1014d8001e007800f20f2000028160009041780021
:1014e800e0c1610002c1710002487800c808de004e
:1014f80010419000604161008140710011409800e6
:101508000080fa00000006000200fa00004f780090
:101518005126800000022000008060000000e000ea
:10152800b20032001e80fb0080004000001621003f
:1015380000804000100178001e80fb008000400001
:101548000016210000804000900178001382fb0003
:10155800934290008582fb00c82add0005027200d4
:1015680004007800234290000482fb00b3419000fd
:101578008381fb00c819dd008301720083007800b5
:101588000404200005002000000378008100780092
:101598008401780005007800830163000080600002
:1015a8006102b800c022dd00040020000400be0073
:1015b800611ab8000400700085807000f30f2000e5
:1015c8008301600012427800604262008341720029
:1015d80003497800c801de001242900060426200b0
:1015e8008341720013419800f30f2000838160004b
:1015f80022429000604262008341720023419800b9
:101608004808de00b2409000e0c0600000c07000f2
:10161800304198001e80fb00800040000016210029
:1016280000804000100078009e80fb00018140008f
:101638000116210081004100910078001182fb0011
:10164800914290008582fb00c82add0005027200e5
:1016580004017800214290000482fb00b140900010
:101668008180fb00c808dd008100720081017800dc
:101678000404200005002000040169008581690038
:10168800f10f200081006100104278006042620082
:101698008140720001487800c810de0010429000b6
:1016a800604262008140720011409800f10f2000f2
:1016b8008180610020429000604262008140720097
:1016c80021409800c818de00304190006041610058
:1016d80081407100314098001e80fb009e80fb0015
:1016e800018140000116210081004100910078002d
:1016f8000130a20000014000001621000000410056
:10170800010878001e80fb008000400000162100c0
:1017180000804000100078009e80fb00018140009e
:101728000116210081004100910078001181fb0021
:10173800914090008180fb00c808dd0081007100a5
:10174800010178000104200081006100f20f2000ef
:101758000281600090417800e0c1610002c171001f
:1017680002487800c808de0010419000604161001e
:1017780081407100114098001e80fb0080004000ed
:101788000016210000804000100078009e80fb00b9
:10179800018140000116210081004100910078007c
:1017a8001181fb00914090008180fb00c808dd009a
:1017b80081007100010178000104200081006900a6
:1017c800f20f20000281600090417800e0c16100c2
:1017d80002c1710002487800c808de00104190007c
:1017e8006041610081407100114098000080fa005a
:1017f800000006000000fa00ca24ef00c224ef002f
:101808000030ef000080fa00000006000000fa0037
:10181800008080000000e00018003a00ca24ef00b1
:10182800c224ef00dc24ef00de24ef008e44a90080
:10183800f009200030268800f009200010268800d2
:101848008ac4a8002ac8a80051438000f08f2f003e
:101858000080600000a0a00050438800010037000d
:10186800ca04a80050268000610060000000e00063
:10187800fbff320010002000008088000080fa0082
:10188800000006000000fa0013d0bf000004a20008
:101898000004e0008500320010c0b30013f0b70068
:1018a80014d0bf000004a2000004e0007f00320052
:1018b80010c0b30014f0b70009d0bf00e24f5000c9
:1018c80025003a00008b8000a0409000e0c0600036
:1018d8002140980030419000c1cfb30081406100a1
:1018e80031409800008b80009040780060c1600013
:1018f80081c4b30081407100014878009040900095
:10190800e0c0600011409800008b8000018b8000cf
:101918001181fb00914090008180fb00c808dd0028
:10192800810071000170a000f20f200002816000a8
:1019380090417800e0c1610002c17100024878005e
:10194800c808de00104190006041610081407100cc
:10195800114098005500370009d0bf00e14f5000f2
:1019680052003a001070ef0020808000a0409000e4
:10197800e0c060000134a000214098003041900090
:10198800c1cfb300814061003140980020808000c1
:1019980091172100f20f200002816000c0419000e1
:1019a800e0c1610002c1710042409800c808de0031
:1019b80050419000604161008140710051409800a1
:1019c8002080800090407800e0c060000124a000e2
:1019d8000148780090409000e0c0600011409800f5
:1019e80020808000218080001181fb0091409000c0
:1019f8008180fb00c808dd00810071000170a00033
:101a0800f20f20000281600090417800e0c161007f
:101a180002c1710002487800c808de001041900039
:101a280060416100814071001140980010c0b3000e
:101a380010f0b70030808000a0409000e0c0600047
:101a48000134a0002140980030419000c1cfb3007c
:101a5800814061003140980030808000911721005a
:101a6800f20f200002816000c0419000e0c16100d7
:101a780002c1710042409800c808de005041900041
:101a880060416100814071005140980030808000c1
:101a980090407800e0c060000174a0000148780020
:101aa80090409000e0c06000114098000080fa006b
:101ab800000006000000fa001570ef001670ef0035
:101ac80009d0bf00e24f500033003a003080800058
:101ad800a0409000e0c060000134a00021409800c0
:101ae80030419000c1cfb30081406100314098007f
:101af8003080800011182100f20f20000281600060
:101b0800c0419000e0c1610002c1710042409800ec
:101b1800c808de00504190006041610081407100ba
:101b280051409800308080009040780060c160008b
:101b380081c4b30081407100014878009040900052
:101b4800e0c0600011409800308080003180800043
:101b58001181fb00914090008180fb00c808dd00e6
:101b6800810071000170a000f20f20000281600066
:101b780090417800e0c1610002c17100024878001c
:101b8800c808de001041900060416100814071008a
:101b9800114098003b003700f01721001080fb002f
:101ba800011821009180fb00c808dd0001007000c9
:101bb80080007800508b8000808f50000700310033
:101bc800f01721001080fb00011821009180fb0014
:101bd800c808dd0001007000508b88000d01070067
:101be800008b800011182100f20f20000281600094
:101bf800c0419000e0c1610002c1710042409800fc
:101c0800c808de00504190006041610081407100c9
:101c180051409800008b80009040780060c16000bf
:101c280081c4b30081407100014878009040900061
:101c3800e0c0600011409800008b8000018b80009c
:101c48001181fb00914090008180fb00c808dd00f5
:101c5800810071000170a000f20f20000281600075
:101c680090417800e0c1610002c17100024878002b
:101c7800c808de0010419000604161008140710099
:101c8800114098000080fa00000006000400fa00e5
:101c9800204798003147980000202100000f780065
:101ca8002e4090000080fb0000004000800078007b
:101cb8003e4090000080fb00008040004400dd00b2
:101cc8001e0f40001e007800904078000174a100ab
:101cd800014878003e4090000004e00007003a0008
:101ce8002e4090000080fb0080004000a0152100dd
:101cf800008040001e087800060037002e40900043
:101d08000080fb0080004000001621000080400099
:101d18001e0878001e007800904078000164a10039
:101d2800014878009e007800688040009040780064
:101d38000164a000014878000080fa000000060055
:101d48000000fa00caa4a900418b80000008200006
:101d5800008060000000e0005d003a00e01621000d
:101d68009040780000c8b30000c060000004e000a4
:101d78000a00320020c0b30009f0b70016d0bf0037
:101d88000004a2000004e0000100320049ff07003f
:101d98001470ef001370ef009c0037003080800053
:101da800a0409000e0c060000134a00021409800ed
:101db80030419000c1cfb3008140610031409800ac
:101dc8003080800091172100f20f2000028160000e
:101dd800c0419000e0c1610002c17100424098001a
:101de800c808de00504190006041610081407100e8
:101df800514098003080800090407800e0c060003a
:101e0800c140b3000148780090409000e0c06000f5
:101e18001140980030808000318080001181fb00e3
:101e2800914090008180fb00c808dd0081007100ae
:101e38000170a000f20f200002816000904178003c
:101e4800e0c1610002c1710002487800c808de00e4
:101e5800104190006041610081407100114098007c
:101e6800008b800090407800e0c060000124a00052
:101e78000148780090409000e0c060001140980050
:101e8800008b8000018b80001181fb009140900045
:101e98008180fb00c808dd00810071000170a0008e
:101ea800f20f20000281600090417800e0c16100db
:101eb80002c1710002487800c808de001041900095
:101ec8006041610081407100114098004f00370067
:101ed800901721009040780000c8b30000c060004f
:101ee8000004e0000f00320010c0b30009f0b70092
:101ef80015d0bf000004a2000004e0000100320079
:101f0800ecfe07001470ef001370ef0012d0bf0052
:101f18000004a2000004e0003c00320059fe070063
:101f28003a00370020c0b30009f0b70030808000c5
:101f3800a0409000e0c060000134a000214098005b
:101f480030419000c1cfb30081406100314098001a
:101f58003080800091172100f20f2000028160007c
:101f6800c0419000e0c1610002c171004240980088
:101f7800c808de0050419000604161008140710056
:101f8800514098003080800090407800e0c06000a8
:101f98000124a0000148780090409000e0c0600053
:101fa8001140980030808000318080001181fb0052
:101fb800914090008180fb00c808dd00810071001d
:101fc8000170a000f20f20000281600090417800ab
:101fd800e0c1610002c1710002487800c808de0053
:101fe80010419000604161008140710011409800eb
:101ff8001470ef001370ef0012d0bf000004a200ad
:102008000004e000010032001efe07000080fa0014
:10201800000006000200fa0080c0b300004f7800fc
:10202800508b8000e70f50000d003e00508b800061
:10203800004f780008d0bf000004e00003003a0019
:1020480010c0b30008f0b7000500370008d0bf0083
:10205800e14f500002003a0020c0b30008f0b7007a
:10206800518b80001e80fb0000805000508b880040
:10207800008b80009e80fb00f23f20008280600081
:10208800f20f200002816000a0419000e0c16100d1
:1020980002c1710022409800c808de00e380600099
:1020a800e3c06000b0419000c2cfb30002c161003c
:1020b800814071003140980010182100508088003c
:1020c800408b8000610060000000e00017003a00cb
:1020d8000900370051808000308b80001041780063
:1020e800824878008100e800518088000000e800fc
:1020f800308b88001e4fe9001e4078000004e00085
:10210800f4ff3a000c00370051808000308b8000cb
:1021180010417800824878008100e80051808800ea
:102128000000e800308b88001e4fe9001e40780050
:102138000004e000f4ff3a000080fa000000060006
:102148000200fa0020808000a04090008180fb00ff
:10215800304090000080fb00630060004800dd0014
:1021680000807000004f78009e80fb00f016210070
:102178001080fb00021721001281fb004811dd00ce
:1021880002007000808f500007003600f016210012
:102198001080fb00011721009180fb00c808dd00ba
:1021a80001007000004f7800f01621001080fb003d
:1021b800011721009180fb00c808dd0001007000b4
:1021c800800078001e80fb0000805000f10f200086
:1021d80001016000f116210091417800e0c1610021
:1021e80002c1710082487800c800de000017210093
:1021f8001041780060416100814071000148780019
:102208000040eb00104798001d003700c016210061
:102218001080fb00d11621009180fb00c808dd006a
:10222800010070009e4090008180fb001218210080
:102238008100410091407800014878000000e800e2
:10224800f10f200001016000c116210091417800c2
:10225800e0c1610002c1710082487800c800de0058
:10226800d016210010417800604161008140710062
:10227800014878001e4090000040e8001047980090
:102288001e4090009e4f5000e0ff3900f0162100dc
:102298001080fb00011721009180fb00c808dd00b9
:1022a800010070000000e00054003200308080001f
:1022b800a0409000e0c060000134a00021409800d8
:1022c80030419000c1cfb300814061003140980097
:1022d8003080800011182100f20f20000281600078
:1022e800c0419000e0c1610002c171004240980005
:1022f800c808de00504190006041610081407100d3
:102308005140980020808000104078000044b200be
:102318000004e0001d003a00308080009040780002
:1023280060c1600081c4b300814071000148780039
:1023380090409000e0c0600011409800308080001c
:10234800318080001181fb00914090008180fb006a
:10235800c808dd00810071000170a000f20f2000a4
:102368000281600090417800e0c1610002c1710003
:1023780002487800c808de00104190006041610002
:10238800814071001140980065003700308080005e
:1023980090407800e0c060000134a0000148780057
:1023a80090409000e0c060001140980030808000ac
:1023b800318080001181fb00914090008180fb00fa
:1023c800c808dd00810071000170a000f20f200034
:1023d8000281600090417800e0c1610002c1710093
:1023e80002487800c808de00104190006041610092
:1023f800814071001140980049003700308080000a
:10240800a0409000e0c060000134a0002140980086
:1024180030419000c1cfb300814061003140980045
:102428003080800091172100f20f200002816000a7
:10243800c0419000e0c1610002c1710042409800b3
:10244800c808de0050419000604161008140710081
:10245800514098003080800090407800e0c06000d3
:102468000124a0000148780090409000e0c060007e
:102478001140980030808000318080001181fb007d
:10248800914090008180fb00c808dd008100710048
:102498000170a000f20f20000281600090417800d6
:1024a800e0c1610002c1710002487800c808de007e
:1024b8001041900060416100814071001140980016
:1024c800101721001080fb00211721009180fb00cc
:1024d800c808dd00010070000000e00007003200bd
:1024e800101721001080fb00211721009180fb00ac
:1024f800c808dd000100700000000100e01621009e
:10250800904078000174a1000148780012d0bf0003
:102518000004a2000004e00001003200d9fc07001a
:102528000080fa00000006000200fa00408b8000dc
:102538000070a000408b8800420020008000eb0063
:10254800204e2000f6f80700020620008000eb006d
:1025580000202100f2f80700ca24a8000040eb0080
:10256800004f78000b0037001e80fb003117210058
:10257800008040008040eb00014878001e80fb008e
:1025880061172100008040008040eb00014878007e
:102598001e4fe8001e407800e24f5000f2ff360060
:1025a800220020008000eb0080152100dcf80700e5
:1025b800ca24a90000212100008b880000202100e6
:1025c800208088002080800030808800b01721009b
:1025d8001040780002f0b70002d0bf000004e0000d
:1025e80003003a0000012000008088000600370040
:1025f8001200200021002100100020005e180700b2
:1026080000022000008088000080fa000000060018
:102618000000fa00901721009040780000c8b3002d
:1026280080cf500047003a008016210001ccb3004b
:1026380001487800c0172100104078000080fb0096
:10264800e20f500009003200e30f5000230032006f
:10265800e10f500037003a00204a2800308b8800ec
:1026680020012000508b880036003700b017210069
:10267800104078000004e00014003a00b017210070
:10268800104078000080fb000000400080007800c7
:10269800c05228000080400010007800308b88006d
:1026a800308b80000080e80090407800a016210060
:1026b80001487800308b800063004000904078002b
:1026c800b0162100014878001e003700801621004e
:1026d8008040eb00014878001a003700b01721004d
:1026e80010407800e24f50000e003e00b017210065
:1026f800104078000080fb00000040008000780057
:10270800e05228000080400010007800308b8800dc
:10271800308b8000104078000080fb00508b8800d0
:1027280008003700801621008040eb00014878003f
:1027380004003700801621008040eb000148780033
:10274800000000000080fa00000006000200fa0005
:10275800101821008040eb00014878002018210063
:102768008040eb00014878009017210090407800e5
:102778007fc060000080fb00e10f500011003200b4
:10278800e20f5000130032000000e0003f003a0062
:10279800408b80000070a000408b88000cd0bf00e8
:1027a8000004e000340032001018210010407800c6
:1027b800804078000114a00010182100014878001a
:1027c80032003700408b80000070a000408b8800ea
:1027d8002e003700408b80000070a000408b8800de
:1027e800d01721009040780000c8b30000c06000f6
:1027f8000004e00009003a00d0172100904078005a
:102808006fc060000080fb0080004000a015210020
:1028180000804000100f780008003700d017210012
:10282800904078006fc060000080fb00800040008e
:102838000016210000804000100f78001e0078006c
:102848009040780000c8b30000c060000004e000b9
:102858000b0032001e0078001040780064406000d1
:102868000004e000080032001018210011c0b30075
:102878000148780005003700000000000300370019
:10288800000000000100370000000000418b8000bc
:1028980000082000008060000000e000080032000e
:1028a80010182100308b8800408b80000000a000a9
:1028b800408b8800a016210021c0b3000148780091
:1028c8000080fa00000006000000fa0000278000df
:1028d800620060000000e0003000320020808000cc
:1028e8009080fb00104090000080fb004800dd0055
:1028f800008070008000780000082000808f500061
:1029080025003a00008b80009080fb00104090006a
:102918000080fb004800dd00008070008000780027
:1029280040082000808f50001b003a002080800063
:1029380090407800e0c06000c140b30001487800d2
:1029480090409000e0c06000114098002080800016
:10295800218080001181fb00914090008180fb0064
:10296800c808dd00810071000170a000f20f20008e
:102978000281600090417800e0c1610002c17100ed
:1029880002487800c808de001041900060416100ec
:102998008140710011409800e024a900000820003f
:1029a800002688000080fa00000006000000fa00f7
:1029b8008a84a800000120000026880010c0b30007
:1029c8000df0b7001c70ef000001eb008000eb0079
:1029d80050072000681707000080fa000000060072
:1029e8000000fa000d70ef000001eb008000eb0022
:1029f80040072000601707008a84a9000001200012
:102a0800402488001c70ef000080fa0000000600d7
:102a18000000fa00d0c2b30011f0b7000ed0bf001a
:102a28000080fb000020a1000000e00024003a0024
:102a38000ed0bf000080fb004200de00004078009e
:102a48000080fb00c300dd00002021000080400062
:102a580020808800208080003080880030808000be
:102a68000030a2003080880020808000104078006c
:102a7800c2c3b3008240600040c3b30080cf50009f
:102a88000d003a0020808000c04090008180fb004b
:102a9800504090000080fb004800dd00008070007e
:102aa80082002000800078009017210095f7070029
:102ab8000b00070008003700670007000600370012
:102ac8000ed0bf000080fb000020a100e80f5000de
:102ad80001003a00a00007000080fa00000006008c
:102ae8000000fa000870ef001270ef001570ef0098
:102af8001670ef001070ef000970ef00008b800077
:102b0800018b80001181fb00914090008180fb00c7
:102b1800c808dd00810071000170a100f20f2000db
:102b28000281600090417800e0c1610002c171003b
:102b380002487800c808de0010419000604161003a
:102b48008140710011409800008b80000030a20085
:102b5800008b8800008b8000018b80001181fb00b6
:102b6800914090008180fb00c808dd008100710061
:102b78000170a100f20f20000281600090417800ee
:102b8800e0c1610002c1710002487800c808de0097
:102b9800104190006041610081407100114098002f
:102ba800008b80000030a200008b880030808000fd
:102bb800318080001181fb00914090008180fb00f2
:102bc800c808dd00810071000170a100f20f20002b
:102bd8000281600090417800e0c1610002c171008b
:102be80002487800c808de0010419000604161008a
:102bf8008140710011409800801621008040eb0050
:102c0800014878000000eb00508b8800e016210096
:102c18008040eb0001487800f016210090407800d1
:102c2800e0c060000148780000172100904078005b
:102c3800e0c0600001487800e90007000001eb00ef
:102c48008000eb0030002000cb1607003cfc07009a
:102c58000080fa00000006000000fa0009d0bf005a
:102c6800e24f500002003a0035fd070038003700f7
:102c78000970ef0010d0bf000004a2000004e000bb
:102c88003200320030808000a0409000e0c0600038
:102c98000134a0002140980030419000c1cfb3001a
:102ca80081406100314098003080800091172100f8
:102cb800f20f200002816000c0419000e0c1610075
:102cc80002c1710042409800c808de0050419000df
:102cd800604161008140710051409800308080005f
:102ce80090407800e0c06000c140b300014878001f
:102cf80090409000e0c06000114098003080800053
:102d0800318080001181fb00914090008180fb00a0
:102d1800c808dd00810071000170a000f20f2000da
:102d28000281600090417800e0c1610002c1710039
:102d380002487800c808de00104190006041610038
:102d48008140710011409800010037001070ef00b9
:102d58000080fa00000006000200fa00008b8000e4
:102d68001080fb004600de0061406000004f7800e4
:102d7800008b80000030a200008b8800008080005b
:102d8800e80f50000e003a00b017210010407800fc
:102d98008080fb00f007200000806000602688002b
:102da800602680000000e0000300320000012000df
:102db8000080880002003700400020000080880062
:102dc80009d0bf00e14f500069003a00008b800035
:102dd80011182100f20f200002816000c04190000c
:102de800e0c1610002c1710042409800c808de00dd
:102df800504190006041610081407100514098004d
:102e080084fc070008d0bf00e24f50001c003a00c5
:102e1800008b800090407800e0c060000124a00092
:102e28000148780090409000e0c060001140980090
:102e3800008b8000018b80001181fb009140900085
:102e48008180fb00c808dd00810071000170a000ce
:102e5800f20f20000281600090417800e0c161001b
:102e680002c1710002487800c808de0010419000d5
:102e780060416100814071001140980056003700a0
:102e88001e4078000004e0001d003a00008b80001e
:102e98009040780060c1600081c4b3008140710037
:102ea8000148780090409000e0c060001140980010
:102eb800008b8000018b80001181fb009140900005
:102ec8008180fb00c808dd00810071000170a0004e
:102ed800f20f20000281600090417800e0c161009b
:102ee80002c1710002487800c808de001041900055
:102ef8006041610081407100114098003600370040
:102f0800008b800090407800e0c060000134a00091
:102f18000148780090409000e0c06000114098009f
:102f2800008b8000018b80001181fb009140900094
:102f38008180fb00c808dd00810071000170a000dd
:102f4800f20f20000281600090417800e0c161002a
:102f580002c1710002487800c808de0010419000e4
:102f68006041610081407100114098001a003700eb
:102f7800e01621009040780000c8b30000c060004f
:102f88000004e00013003200101721001080fb003d
:102f9800211721009180fb00c808dd0001007000a6
:102fa8000000e00007003200101721001080fb002d
:102fb800211721009180fb00c808dd000100700086
:102fc80000000100e0162100904078000174a10083
:102fd800014878000970ef000080fa000000060040
:102fe8000000fa0090172100104078000046b20057
:102ff8000004e00051003a00a017210010407800ba
:103008000080fb00cf80de00b2002000030020001b
:10301800820f5000838f58004a003e0000060100ce
:103028002100370022003700480037002000370011
:1030380046003700060037000b0037003a0037001b
:103048000d0037000a0037001b0037002a00370040
:10305800408b80000070a000408b8800800020001a
:10306800008088003a00370069fd07003800370003
:103078002dfd07003600370020002100308b880026
:10308800408b80000000a000408b8800a016210023
:1030980011c0b30001487800408b80000070a00088
:1030a800408b88002a003700a8fd07002800370059
:1030b8002900070026003700d017210010407800ab
:1030c8008080fb008015210000804000308b880044
:1030d800408b80000000a000408b8800a0162100d3
:1030e80011c0b30001487800408b80000070a00038
:1030f800408b880016003700408b80000070a000cd
:10310800408b8800d0172100104078000080fb0019
:10311800b11721009140780082152100000041007c
:10312800014878000a0037000001eb008000eb003e
:10313800200020009015070005003700000000005f
:103148000300370000000000010037000000000005
:103158000080fa00000006000600fa00b0172100ff
:1031680010407800e14f500010003a0090172100fd
:10317800104078007f4060000004e0000b003a0037
:10318800408b80000070a000408b8800a0172100b1
:1031980010407800e34f500003003a0010c0b3001d
:1031a8000cf0b700010037000c70ef00b0172100d9
:1031b800104078000004e0005b013a0090172100fd
:1031c800104078007f406000e24f500056013a00fe
:1031d800d0172100104078006f4060000004e00024
:1031e80051013200d0172100904078006fc0600074
:1031f8000080fb00e20f50004b013c000180800082
:1032080000022000808f500047013a00408b800068
:103218000070a000408b8800d017210090407800f3
:1032280000c8b30000c060000004e00011003a00cc
:10323800d0172100104178006f4061000080fb002a
:1032480080004000a015210000804000100f780089
:10325800d0172100904078006fc060000080fb000c
:103268006117210000804000104078004047980016
:1032780010003700d0172100104178006f4061001e
:103288000080fb0080004000001621000080400004
:10329800100f7800d0172100904078006fc06000b0
:1032a8000080fb00311721000080400010407800aa
:1032b800404798004e409000614060000004e000e4
:1032c80004003a001e0078000030a100000f7800ca
:1032d800030037001e0078000030a000000f7800bf
:1032e800d01721009040780000c8b30000c06000eb
:1032f8000004e0000a003a00d017210010417800cd
:103308006f4061000080fb009e00780000014000d3
:10331800a0152100000041000108780009003700cd
:10332800d0172100904078006fc060000080fb003b
:103338009e007800000140000016210000004100b6
:1033480001087800a017210010407800e34f5000d2
:1033580048003a001e0078009040780000c8b3008a
:1033680000c060000004e00019003200d0172100fe
:103378009040780000c8b30000c060000004e0007e
:103388000a003a00d0172100104178006f40610010
:103398008080fb006017210000804000904078008a
:1033a8000114a0000148780009003700d017210057
:1033b800904078006fc060008080fb0030172100cb
:1033c80000804000904078000114a0000148780077
:1033d8001e0078009080fb00104090000080fb00e9
:1033e8004800dd0000807000800078000120a00007
:1033f8001e007800f20f20000281600090417800e2
:10340800e0c1610002c1710002487800c808de000e
:1034180010419000604161008140710011409800a6
:103428001e0078009080fb00104090000080fb0098
:103438004800dd0000807000800078000170a00066
:103448001e007800f20f2000028160009041780091
:10345800e0c1610002c1710002487800c808de00be
:103468001041900060416100814071001140980056
:10347800ad0037001e0078000030a200000f780071
:103488001e0078009040780000c8b30000c06000bb
:103498000004e0002d0032001e0078009080fb0040
:1034a800104090000080fb004800dd0000807000a4
:1034b800800078000170a1001e007800f20f200043
:1034c8000281600090417800e0c1610002c1710092
:1034d80002487800c808de00104190006041610091
:1034e80081407100114098001e0078009080fb0018
:1034f800104090000080fb004800dd000080700054
:10350800800078000160a0001e007800f20f200003
:103518000281600090417800e0c1610002c1710041
:1035280002487800c808de00104190006041610040
:103538008140710011409800220020009e00780010
:10354800500020008c140700140037001e0078007b
:103558009080fb00104090000080fb004800dd00d8
:1035680000807000800078000160a0001e007800d4
:10357800f20f20000281600090417800e0c16100f4
:1035880002c1710002487800c808de0010419000ae
:103598006041610081407100114098001e00780070
:1035a8000030a200000f78004e409000624060009a
:1035b8000004e00006003a001e0078009040780001
:1035c80000c8b30000c060000004e000330032000f
:1035d800d01721009040780000c8b30000c06000f8
:1035e8000004e0000a003a00d017210010417800da
:1035f8006f4061008080fb00601721000080400060
:10360800904078000114a1000148780009003700b3
:10361800d0172100904078006fc060008080fb00c8
:103628003017210000804000904078000114a1006c
:10363800014878001e0078009080fb001040900040
:103648000080fb004800dd000080700080007800ea
:10365800b0f32f00808060001e007800f20f200079
:103668000281600090417800e0c1610002c17100f0
:1036780002487800c808de001041900060416100ef
:103688008140710011409800220020009e007800bf
:103698005000200038140700150037001e0078007d
:1036a8009080fb00104090000080fb004800dd0087
:1036b8000080700080007800b0f32f0080806000e8
:1036c8001e007800f20f200002816000904178000f
:1036d800e0c1610002c1710002487800c808de003c
:1036e80010419000604161008140710011409800d4
:1036f800014e2000d0172100104178006f40610072
:103708000080fb0000004000008040001007980087
:103718001e00900010407800804078000114a1003d
:103728001e009000014878000080fa0000000600a2
:103738000000fa00c0808000d18080006100400055
:10374800e0804800c0808800d18088000dd0bf008c
:103758000004a2000004e000080032001cd0bf00f2
:103768000040e8001cf0b7001cd0bf000004e000d7
:1037780002003a0000c0eb001cf0b7000080fa001d
:10378800000006000400fa00c2808000d380800098
:10379800028fbe00c0808000d18080001e017800aa
:1037a8009e019000800f5100818f5900f6ff3a006a
:1037b8001e0078009e0090000080fa0000000600bd
:1037c8000200fa00000f78001e0078008000eb006d
:1037d800e200200003002000820f5000838f580071
:1037e8002e003e00000601000e0037000f003700d3
:1037f800100037001100370012003700130037009f
:10380800140037001500370016003700170037007e
:1038180018003700190037001a0037001b0037005e
:103828001c00370001eba8001d00370011eba800b1
:103838001b00370021eba8001900370031eba80066
:103848001700370041eba8001500370051eba8001e
:103858001300370061eba8001100370071eba800d6
:103868000f00370081eba8000d00370091eba8008e
:103878000b003700a1eba80009003700b1eba80046
:1038880007003700c1eba80005003700d1eba800fe
:1038980003003700e1eba80001003700000000003a
:1038a8000080fa00000006000400fa00000f78000b
:1038b800110798001e0078008000eb00e20020004d
:1038c80003002000820f5000838f58004c003e00f8
:1038d800000601000e003700110037001400370001
:1038e800170037001a0037001d0037002000370086
:1038f8002300370026003700290037002c00370046
:103908002f00370032003700350037003800370005
:103918009e00900021588800062bef0039003700e0
:103928009e009000a1588800162bef003500370044
:103938009e00900021598800262bef0031003700a7
:103948009e009000a1598800362bef002d0037000b
:103958009e009000215a8800462bef00290037006e
:103968009e009000a15a8800562bef0025003700d2
:103978009e009000215b8800662bef002100370035
:103988009e009000a15b8800762bef001d00370099
:103998009e009000215c8800862bef0019003700fc
:1039a8009e009000a15c8800962bef001500370060
:1039b8009e009000215d8800a62bef0011003700c3
:1039c8009e009000a15d8800b62bef000d00370027
:1039d8009e009000215e8800c62bef00090037008a
:1039e8009e009000a15e8800d62bef0005003700ee
:1039f8009e009000215f8800e62bef000100370051
:103a0800000000000080fa00000006000400fa0030
:103a1800000f7800110798001e0078008000eb0066
:103a2800e200200003002000820f5000838f58001e
:103a38003d003e00000601000e0037001000370070
:103a4800120037001400370016003700180037003e
:103a58001a0037001c0037001e003700200037000e
:103a680022003700240037002600370028003700de
:103a78002a0037009e009000615888002b0037000c
:103a88009e009000e1588800280037009e009000b2
:103a980061598800250037009e009000e159880090
:103aa800220037009e009000615a88001f003700ee
:103ab8009e009000e15a88001c0037009e0090008c
:103ac800615b8800190037009e009000e15b880068
:103ad800160037009e009000615c880013003700d4
:103ae8009e009000e15c8800100037009e00900066
:103af800615d88000d0037009e009000e15d880040
:103b08000a0037009e009000615e880007003700b9
:103b18009e009000e15e8800040037009e0090003f
:103b2800615f880001003700000000000080fa0093
:103b3800000006004000fa00889fbe008a9fbe0071
:103b48008c9fbe00004f9800510798000000eb00c2
:103b5800100798000000eb00000f78006000b80024
:103b680020079800310798000e4890000080fb005d
:103b78004400dd006101b80002f0a7000320200026
:103b8800221f9800331f980003c02d00431f980080
:103b980014002000541f98002e189000be189000a2
:103ba8004e199000de1990000002d0008202d00069
:103bb800050042004220a800838048004200a90076
:103bc8004220ae004200a8000080d300201f9800c9
:103bd800311f9800930180002e189000be189000a5
:103be8000101780002d0fe00000078001000780083
:103bf80003d0fe0061006000100798001e009000ce
:103c08000000e0003a003a000e4890000080fb00f7
:103c18004400dd006100b80000f0a700012020008a
:103c280006c02d00170020000001d0008601d0003a
:103c3800030041004220a800878048004200a900f4
:103c48004220ae004200a8000080d300930180000b
:103c58000101780002d0fe00000078009000780092
:103c680003d0fe00c0ff2100008060004200de009b
:103c78006101b8005e0090000288be00de0090007e
:103c8800210090000000a100a00098000e489000bc
:103c98000080fb004400dd006100b80000f0a700d0
:103ca8000120200008c02d00190020000002d000cb
:103cb8008802d000050042004220a8008980480000
:103cc8004200a9004220ae004200a8000080d300b4
:103cd800930180000101780002d0fe000000780006
:103ce8001000780003d0fe00620f6000b8003700b3
:103cf8000e4890000080fb004400dd006100b80021
:103d080000f0a7000120200006c02d00661f9800c3
:103d180012002000721f98006e1a9000fe1a900080
:103d28000003d0000401d000020043004220a80094
:103d3800858048004200a9004220ae004200a80049
:103d48000080d300930180000101780002d0fe00ba
:103d5800000078001000780003d0fe008000eb001f
:103d6800c2ff2100030020008002780001027800d1
:103d780082007800030078008182620000006200ff
:103d88008000eb00c000dd00000020000001be0044
:103d98006128b80000017100818171002207980034
:103da800330798002e009000be009000c001dd008f
:103db800020020005e0090000288be005e009000b5
:103dc80010037800900390000e4890000080fb00dc
:103dd8004400dd000080e8006100b80000f0a700a2
:103de800012020000ac02d001b0020008001d00007
:103df8000a02d000048041004220a8008b804800bd
:103e08004200a9004220ae004200a8000080d30072
:103e1800930180000101780002d0fe0000007800c4
:103e28001000780003d0fe008000eb00f2ff2000b5
:103e380003002000800278000102780082007800e8
:103e48000300780081826200000062008000eb00bd
:103e5800c000dd00000020000001be006128b8009d
:103e680000017100818171004618dd00ca10de0072
:103e7800810070004610dd0006014000878148007f
:103e88005e0090000288be005e009000100378007b
:103e9800900390000e4890000080fb004400dd0075
:103ea800640040006100b80000f0a7000120200075
:103eb8000cc02d001d0020008002d0000c01d00095
:103ec800028042004220a8008d8048004200a900dc
:103ed8004220ae004200a8000080d3009301800079
:103ee8000101780002d0fe00000078001000780080
:103ef80003d0fe004a00de008000eb00f2ff2f0036
:103f08000300200080027800010278008200780017
:103f18000300780081826200000062008000eb00ec
:103f2800c000dd00000020000001be006128b800cc
:103f380000017100818171000601410087814900fb
:103f48005e0090000288be00de0090002100900014
:103f58000000a000a00098000e4890000080fb0020
:103f68004400dd00640040006100b80000f0a700d4
:103f78000120200003c02d006307980014002000d2
:103f8800740798006e019000fe0190000002d000b6
:103f98008202d000050042004220a8008380480029
:103fa8004200a9004220ae004200a8000080d300d1
:103fb800930180000101780002d0fe000000780023
:103fc8009000780003d0fe0000202000008f6000e1
:103fd8001e0078000000e000050032005e0090003e
:103fe800a00090000110a0002100980038013700bf
:103ff800de009000210090000010a100a0009800b1
:104008005e009000300290000e4890000080fb0097
:104018004400dd00660040006100b80000f0a70021
:104028000120200006c02d00060f98001200200075
:10403800120f98000e0990009e0990008002d0008f
:104048000203d000068042004220a8008380480076
:104058004200a9004220ae004200a8000080d30020
:10406800930180000101780002d0fe000000780072
:104078001000780003d0fe0000407800004a780065
:104088005e009000300090000002e8000e489000aa
:104098000080fb004400dd00660040006100b800bd
:1040a80000f0a7000120200002c02d00220f980078
:1040b80013002000330f98002e099000be099000cd
:1040c8008002d0000203d000068042004220a800ef
:1040d800838048004200a9004220ae004200a800a8
:1040e8000080d300930180000101780002d0fe0017
:1040f800000078001000780003d0fe004800de00c1
:1041080000407800004a78005e009000300090007f
:104118000082e8000e4890000080fb004400dd00ab
:10412800680040006100b80000f0a70001202000ee
:1041380002c02d00420f980013002000530f980072
:104148004e099000de0990008002d0000203d000e2
:10415800068042004220a800838048004200a9004f
:104168004220ae004200a8000080d30093018000e6
:104178000101780002d0fe000000780010007800ed
:1041880003d0fe0000407800004a78005e009000ee
:1041980030009000630240000e4890000080fb0051
:1041a8004400dd00680040006100b80000f0a7008e
:1041b8000120200002c02d00620f9800130020008b
:1041c800730f98006e099000fe0990008002d000dd
:1041d8000203d000068042004220a80083804800e5
:1041e8004200a9004220ae004200a8000080d3008f
:1041f800920180008101780003d0fe000000780061
:104208001000780002d0fe004800de000040780070
:10421800004a78005e009000300090006401400081
:104228000e4890000080fb004400dd006a0040005a
:104238006100b80000f0a7000120200003c02d0095
:104248000317980014002000141798000e1290000d
:104258009e1290000003d0008401d00003004300a8
:104268004220a800858048004200a9004220ae00f4
:104278004200a8000080d30093018000010278006a
:1042880004d0fe00000078001000780003d0fe0083
:1042980000407800004978005e00900030009000ef
:1042a800650140000e4890000080fb004400dd00de
:1042b8006a0040006100b80000f0a700012020005b
:1042c80004c02d0024179800150020003517980009
:1042d8002e129000be1290000003d0008401d0007e
:1042e800030043004220a800858048004200a9003e
:1042f8004220ae004200a8000080d3009301800055
:104308000102780004d0fe00000078001000780058
:1043180003d0fe004800de00004078000049780025
:104328005e00900030009000660140000e4890004a
:104338000080fb004400dd006c0040006100b80014
:1043480000f0a7000120200004c02d0044179800a9
:1043580015002000551798004e129000de129000ac
:104368000003d0008401d000030043004220a800cd
:10437800858048004200a9004220ae004200a80003
:104388000080d300930180000102780004d0fe0071
:10439800000078001000780003d0fe00004078008c
:1043a800004978005e0090003000900067014000ee
:1043b8000e4890000080fb004400dd006c004000c7
:1043c8006100b80000f0a7000120200004c02d0003
:1043d8006417980015002000751798006e12900059
:1043e800fe1290000003d0008401d00003004300b7
:1043f8004220a800858048004200a9004220ae0063
:104408004200a8000080d3009301800001027800d8
:1044180004d0fe00000078001000780003d0fe00f1
:104428004800de0000407800004978000e489000ff
:104438000080fb004400dd00640040006100b8001b
:1044480000f0a7000120200004c02d00041f9800e0
:1044580015002000151f98000e1990009e19900055
:104468000002d0008202d000050042004220a800cd
:10447800838048004200a9004220ae004200a80004
:104488000080d300920180008101780003d0fe00f3
:10449800000078001000780002d0fe00004078008c
:1044a8006f4060006f4060006f406000de00900069
:1044b8000080fb006f0060004200dd00a101900059
:1044c80032fc2f000281610002007000a0009800f9
:1044d8004f06be004f05be004f04be000080fa0024
:1044e800000006001400fa00889fbe008a9fbe00e4
:1044f8008c9fbe00000f7800110798001e009000e6
:1045080020009000610060000000e0005a003a00be
:104518001e00900090009000100078008000780045
:10452800f07f200000806000c200dd001e009000c7
:10453800200090000000d100614060000080fb0076
:104548000000400062006000008340001e00780008
:104558004400dd006100b80000f0a7000120200041
:1045680004c02d00150020000001d0008401d000f7
:10457800030041004220a800858048004200a900ad
:104588004220ae004200a8000080d300a3018000b2
:104598000101780000007800a20188000608780070
:1045a800a30188001e0078004400dd000080e800b8
:1045b8006100b80000f0a700012020000ac02d000b
:1045c8001b0020000002d0008a02d0000500420033
:1045d8004220a8008b8048004200a9004220ae007b
:1045e8004200a8000080d3008001eb00a2018000f7
:1045f8000102780000007800a40188000308780010
:10460800a20188001e009000200090004200de00f9
:104618006f4060008081fb001e0078004400dd00d0
:10462800640040006100b80000f0a70001202000ed
:104638000cc02d001d0020000003d0000c01d0008c
:10464800020043004220a8008d8048004200a900d3
:104658004220ae004200a8000080d300a2018000e2
:104668000102780000007800a4018800030878009f
:10467800a20188006c0037001e0090009000900096
:10468800100078004008de0080007800c0ff21009c
:1046980000806000000278003400b3001e0078003b
:1046a8004400dd006100b80000f0a70001202000f0
:1046b80002c02d00130020008002d0000203d000a9
:1046c800068042004220a800838048004200a900da
:1046d8004220ae004200a8000080d300a301800061
:1046e8000101780000007800a20188000408780021
:1046f800a30188001e009000900090001000780030
:104708004a09dd004600de0000007100c608de0030
:1047180080007800f0ff2000008260001e00780012
:104728004400dd000080e8006100b80000f0a70048
:104738000120200006c02d00170020008001d000b5
:104748008602d000058041004220a80087804800ea
:104758004200a9004220ae004200a8000080d30019
:10476800a20180008101780000007800a301880080
:1047780004087800a20188001e0090002000900024
:104788004200de006f4060000081fb001e009000c8
:104798009000900010007800000078004a00dd00ca
:1047a800800041001e009000200090000000d10011
:1047b800614060000080fb004900dd0000017800d6
:1047c8000020200000006100808140001e00780069
:1047d8004400dd00640040006100b80000f0a7005c
:1047e8000120200008c02d00190020000003d0007f
:1047f8000801d000020043004220a8008980480038
:104808004200a9004220ae004200a8000080d30068
:10481800a20180000102780000007800a40188004d
:1048280003087800a20188001e0090003000900064
:104838000000e0009f0032001e0090003000900051
:104848000000e800104078000080fb00c800dd0090
:104858001e00900030009000104078000080fb009f
:1048680000804000800178001e0078004400dd00d0
:10487800660040006100b80000f0a7000120200099
:1048880004c02d0024079800150020003507980063
:104898002e029000be0290000003d0000401d00058
:1048a800020043004220a800858048004200a90079
:1048b8004220ae004200a8000080d300a201800080
:1048c8000102780000007800a4018800030878003d
:1048d800a20188001e009000300090006300400094
:1048e800104078000080fb00c800dd001e0090002a
:1048f800300090000080e800104078000080fb0045
:1049080000804000800178001e0078004400dd002f
:10491800680040006100b80000f0a70001202000f6
:1049280004c02d0044079800150020005507980082
:104938004e029000de0290000003d0000401d00077
:10494800020043004220a800858048004200a900d8
:104958004220ae004200a8000080d300a2018000df
:104968000102780000007800a4018800030878009c
:10497800a20188001e0090003000900065004000f1
:10498800104078000080fb00c800dd001e00900089
:104998003000900064004000104078000080fb0068
:1049a80000804000800178001e0078004400dd008f
:1049b8006a0040006100b80000f0a7000120200054
:1049c80004c02d00640798001500200075079800a2
:1049d8006e029000fe0290000003d0000401d00097
:1049e800020043004220a800858048004200a90038
:1049f8004220ae004200a8000080d300a20180003f
:104a08000102780000007800a401880003087800fb
:104a1800a20188001e00900030009000670040004e
:104a2800104078000080fb00c800dd001e009000e8
:104a38003000900066004000104078000080fb00c5
:104a480000804000800178001e0078004400dd00ee
:104a58006c0040006100b80000f0a70001202000b1
:104a680004c02d00040f980015002000150f9800b1
:104a78000e0a90009e0a90000003d0000401d000a6
:104a8800020043004220a800858048004200a90097
:104a98004220ae004200a8000080d300a20180009e
:104aa8000102780000007800a4018800030878005b
:104ab800a20188004f06be004f05be004f04be008d
:104ac8000080fa00000006000000fa002708a9008c
:104ad8000c25ef0001288000f08f2f000080600077
:104ae80000a0a00000288800000000000128800025
:104af800000e20008080600000082000808f500099
:104b0800faff3a002000200080288800801a200040
:104b18009028880010002c00302888001425ef0009
:104b280000802000002888000005a8008029800057
:104b38007f00600080298800a02980007f00600035
:104b4800a0298800c02980007f006000c029880053
:104b580081298000c0ff2f00008060008029880024
:104b6800a1298000c0ff2f0000806000a0298800d4
:104b7800c1298000c0ff2f0000806000c029880084
:104b88003225ef003625ef003a25ef003065a90001
:104b98003465a9003865a9000005a90030e5a8001a
:104ba80031e5a90032e5a90033e5a90034e5a900fb
:104bb80035e5a90036e5a90037e5a9008129800077
:104bc800c0ff2f00008060008029880081298000b4
:104bd800f0cf2f0000806000802988009129800094
:104be800c0ff2f0000806000902988009129800074
:104bf800f0cf2f000080600090298800a129800054
:104c0800c0ff2f0000806000a0298800a129800033
:104c1800f0cf2f0000806000a0298800b129800013
:104c2800c0ff2f0000806000b0298800b1298000f3
:104c3800f0cf2f0000806000b02988002025ef0009
:104c48002225ef002825ef002a25ef000a25a900d4
:104c580001288000f08f2f00008060000028880065
:104c68000000000001288000000e20000080600085
:104c78000000e000fbff3a00208e220052010700ee
:104c88002708a8000080fa00000006000000fa00cb
:104c98002054200080007800300020005bfb0700d3
:104ca80000c02d008000780030002000fefa0700c8
:104cb80030002000c2fa07000080fa000000060059
:104cc8000000fa0000542000800078002000200036
:104cd8004efb070000c02d00800078002000200057
:104ce800f1fa070020002000b5fa07000080fa005a
:104cf800000006000400fa00100798000000eb000e
:104d0800000f780021000700e40f50000600320071
:104d18001e009000e10f5000030032001e009000ba
:104d2800e40f500014003a001e0090000040780084
:104d3800674060000080fb00670060004800dd00fd
:104d480002288000f18f2f008100610001007000af
:104d58000028880000000000002880004500de00d0
:104d6800674060008080fb001e009000808f50002c
:104d7800f9ff3a000200370010002000000f780009
:104d88001e0078000080fa00000006000000fa000b
:104d9800002880004500de00674060000080fb00be
:104da8000080fa00000006000c00fa004007980096
:104db800510798000000eb00000f78000053200016
:104dc800100798000040eb00604798005e009000d4
:104dd800200090004200de006f4060000080fb0071
:104de800e80f5000010034001e00a0000000eb0096
:104df80020079800250037001e009000904078009a
:104e080000c8b30000c060000004e00019003200d0
:104e18001e00900010407800684060000004e00028
:104e280014003a00de0090002e009000adfd07004f
:104e38004e00900000407800e34060001e009000a3
:104e4800e3c0600090417800c2cfb30002c16100a6
:104e580081407100014878001e0090009040780061
:104e68000134a0000148780010c0b30060479800e2
:104e7800090037001e0090000000e80010079800a5
:104e88002e0090000000e800200798002e009000f7
:104e98000000e000d8ff32006e4090000004a2003d
:104ea8000004e000020032009e007800638f70006a
:104eb8001e0078000080fa00000006000800fa00d2
:104ec800300798000040eb00204798003e00900013
:104ed800300090000000e00002003a002e409000f0
:104ee8002e00370001298000210798002e0090002d
:104ef8000000e000280032000000eb00000f7800fe
:104f08002000370090818000ae0090000008de008d
:104f180061006000004078000004e0000e003200ec
:104f28009081800000407800be00900001fb0700df
:104f380090818000110020000008dd000080ea0058
:104f48008000780000298000008060000029880027
:104f580010c0b30020479800908180000000e8004e
:104f68009081880090818000ef0f5000010036008a
:104f78003230ef002e4090000004e00005003a00b7
:104f88001e0fe8001e007800ef0f5000ddff36000e
:104f980001003700000000002e4090000080fa0059
:104fa800000006000000fa00502880004d00de00d6
:104fb800614060000080fb0000f0a7000000ea00ec
:104fc8000000ea004f00de00004078000080fa0090
:104fd800000006000000fa00502880004b00de00a8
:104fe800614060000080fb0000f0a7000000ea00bc
:104ff8000000ea004f00de00004078000080fa0060
:10500800000006000000fa00502880004900de0079
:10501800614060000080fb0000f0a7000000ea008b
:105028000000ea004f00de00004078000080fa002f
:10503800000006000200fa000040eb00004f780074
:105048000ec5bf000004e000050032000ec5bf0019
:105058000004e0000200350010c0b300004f7800e3
:105068001e4078000080fa00000006000000fa00e8
:10507800502880004c00de00614060000080fb008a
:1050880000f0a7000000ea000000ea004f00de0080
:10509800004078000080fa00000006000000fa00d6
:1050a800502880004a00de00614060000080fb005c
:1050b80000f0a7000000ea000000ea004f00de0050
:1050c800004078000080fa00000006000200fa00a4
:1050d8000040eb00004f78000fc5bf000004e0005f
:1050e800050032000fc5bf000004e00002003500d3
:1050f80010c0b300004f78001e4078000080fa000e
:10510800000006000600fa000000eb00000f78001f
:1051180001298000210798002e0090000000e0007f
:10512800110032000000eb00100798000b00370058
:105138001e009000ae0090000008de0061006000d4
:10514800004078000004e000010032001e0fe80073
:105158001e0090000000e800100798001e00900054
:10516800ef0f5000f2ff36001e0078000040780074
:105178000080fa00000006000000fa000ac5a90035
:105188000cc5a80001288000f08f2f000080600067
:105198000080a0000028880000000000012880008e
:1051a800000e20008080600000022000808f5000e8
:1051b800faff3a000080fa00000006000000fa003a
:1051c8000080fa00000006000200fa00000f7800d4
:1051d8001e007800808188000080fa000000060028
:1051e8001400fa00000f9800110f9800030009003e
:1051f800001feb008e00b1007e0798001e0890008b
:10520800900090001000780040079800510798001f
:105218001e08900040409000614060000080fb0044
:1052280061006000ee0090000100a1000100700024
:10523800600798001e089000504090006140600090
:105248000080fb006100600000004000ee0090005c
:105258000110a10001007000600798001e0890006e
:10526800604090006f4060000080fb006f006000ad
:105278004200dd006e01900031fc2f0081006100ca
:1052880001007000600798007e0090009e08900062
:10529800f1409000014878007e0090000000e8008e
:1052a8009e08900081489000014878007e00900098
:1052b8000080e8009e08900091489000014878001e
:1052c8007e009000630040009e089000a148900076
:1052d800014878007e009000640040009e0890001d
:1052e800b1489000014878007e00900065004000b9
:1052f8009e089000c1489000014878007e00900008
:10530800660040009e089000d1489000014878004f
:105318007e009000670040009e089000e1489000e1
:105328000148780068004700800078000e08900067
:105338009dfe070000f0a7000000ea000000ea0058
:105348004f00de00004078000080fa0000000600f0
:105358001400fa00100f98000040eb00004f78008e
:10536800e1004700070009008058eb000e00e80044
:10537800000f98006a004700d0fe07000004e00014
:10538800430032005e009000ee0090001e0990007d
:105398000089be007e009000614060008040780077
:1053a8001e089000414098007e0090006200600056
:1053b8000000e000040032001e08900021c0b30085
:1053c80051409800030037001e08900011c0b30038
:1053d800514098000e089000904078001e089000f8
:1053e800714098000e0890000000e8009040780096
:1053f8001e089000014898000e0890000080e80000
:10540800904078001e089000114898000e089000ff
:1054180063004000904078001e08900021489800e2
:105428000e08900064004000904078001e0890002c
:10543800314898000e0890006500400090407800c0
:105448001e089000414898000e0890006600400031
:10545800904078001e089000514898000e0890006f
:1054680067004000904078001e089000614898004e
:105478007e0090004200de006f40600080407800af
:105488001e0890006140980010c0b300004f7800db
:105498001e4078000080fa00000006000000fa00b4
:1054a800502880004d00de00614060000080fb0055
:1054b80000f0a7000000ea000000ea004f00de004c
:1054c800004078000080fa00000006000000fa00a2
:1054d800502880004b00de00614060000080fb0027
:1054e80000f0a7000000ea000000ea004f00de001c
:1054f800004078000080fa00000006000000fa0072
:10550800502880004c00de00614060000080fb00f5
:1055180000f0a7000000ea000000ea004f00de00eb
:10552800004078000080fa00000006000600fa003b
:105538000000eb00000f7800012980002107980087
:105548002e0090000000e000110032000000eb0087
:10555800100798000b0037001e009000ae00900066
:105568000008de0061006000004078000004e000f0
:10557800010032001e0fe8001e0090000000e80045
:10558800100798001e009000ef0f5000f2ff360041
:105598001e007800004078000080fa000000060035
:1055a8000000fa000ac5a9000cc5a800012880005f
:1055b800f08f2f00008060000080a0000028880085
:1055c8000000000001288000000e2000808060009c
:1055d80000022000808f5000faff3a000080fa0095
:1055e800000006000200fa00000f78001e00780094
:1055f8008000eb00e200200003002000820f500032
:10560800838f58002e003e00000601000e00370070
:105618000f00370010003700110037001200370064
:105628001300370014003700150037001600370044
:105638001700370018003700190037001a00370024
:105648001b0037001c00370001eba8001d003700c5
:1056580011eba8001b00370021eba8001900370048
:1056680031eba8001700370041eba8001500370000
:1056780051eba8001300370061eba80011003700b8
:1056880071eba8000f00370081eba8000d00370070
:1056980091eba8000b003700a1eba8000900370028
:1056a800b1eba80007003700c1eba80005003700e0
:1056b800d1eba80003003700e1eba8000100370098
:1056c800000000000080fa00000006000400fa0054
:1056d800000f7800110798001e0078008000eb008a
:1056e800e200200003002000820f5000838f580042
